{
  "contractName": "Etherball",
  "abi": [
    {
      "constant": true,
      "inputs": [],
      "name": "deadline",
      "outputs": [
        {
          "name": "",
          "type": "uint256"
        }
      ],
      "payable": false,
      "stateMutability": "view",
      "type": "function"
    },
    {
      "constant": false,
      "inputs": [],
      "name": "renounceOwnership",
      "outputs": [],
      "payable": false,
      "stateMutability": "nonpayable",
      "type": "function"
    },
    {
      "constant": true,
      "inputs": [],
      "name": "startTime",
      "outputs": [
        {
          "name": "",
          "type": "uint256"
        }
      ],
      "payable": false,
      "stateMutability": "view",
      "type": "function"
    },
    {
      "constant": true,
      "inputs": [],
      "name": "owner",
      "outputs": [
        {
          "name": "",
          "type": "address"
        }
      ],
      "payable": false,
      "stateMutability": "view",
      "type": "function"
    },
    {
      "constant": true,
      "inputs": [],
      "name": "playing",
      "outputs": [
        {
          "name": "",
          "type": "uint256"
        }
      ],
      "payable": false,
      "stateMutability": "view",
      "type": "function"
    },
    {
      "constant": true,
      "inputs": [],
      "name": "winner",
      "outputs": [
        {
          "name": "",
          "type": "address"
        }
      ],
      "payable": false,
      "stateMutability": "view",
      "type": "function"
    },
    {
      "constant": true,
      "inputs": [],
      "name": "prize",
      "outputs": [
        {
          "name": "",
          "type": "uint256"
        }
      ],
      "payable": false,
      "stateMutability": "view",
      "type": "function"
    },
    {
      "constant": false,
      "inputs": [
        {
          "name": "newOwner",
          "type": "address"
        }
      ],
      "name": "transferOwnership",
      "outputs": [],
      "payable": false,
      "stateMutability": "nonpayable",
      "type": "function"
    },
    {
      "constant": true,
      "inputs": [
        {
          "name": "",
          "type": "uint256"
        }
      ],
      "name": "players",
      "outputs": [
        {
          "name": "",
          "type": "address"
        }
      ],
      "payable": false,
      "stateMutability": "view",
      "type": "function"
    },
    {
      "inputs": [
        {
          "name": "_deadline",
          "type": "uint256"
        },
        {
          "name": "_owner",
          "type": "address"
        },
        {
          "name": "_number",
          "type": "uint256"
        }
      ],
      "payable": false,
      "stateMutability": "nonpayable",
      "type": "constructor"
    },
    {
      "payable": true,
      "stateMutability": "payable",
      "type": "fallback"
    },
    {
      "anonymous": false,
      "inputs": [
        {
          "indexed": false,
          "name": "_deadline",
          "type": "uint256"
        },
        {
          "indexed": false,
          "name": "_owner",
          "type": "address"
        },
        {
          "indexed": false,
          "name": "_startTime",
          "type": "uint256"
        }
      ],
      "name": "Game",
      "type": "event"
    },
    {
      "anonymous": false,
      "inputs": [
        {
          "indexed": false,
          "name": "_players",
          "type": "address[]"
        },
        {
          "indexed": false,
          "name": "playing",
          "type": "uint256"
        }
      ],
      "name": "Players",
      "type": "event"
    },
    {
      "anonymous": false,
      "inputs": [
        {
          "indexed": false,
          "name": "_prize",
          "type": "uint256"
        },
        {
          "indexed": false,
          "name": "_winner",
          "type": "address"
        }
      ],
      "name": "Prize",
      "type": "event"
    },
    {
      "anonymous": false,
      "inputs": [
        {
          "indexed": true,
          "name": "previousOwner",
          "type": "address"
        }
      ],
      "name": "OwnershipRenounced",
      "type": "event"
    },
    {
      "anonymous": false,
      "inputs": [
        {
          "indexed": true,
          "name": "previousOwner",
          "type": "address"
        },
        {
          "indexed": true,
          "name": "newOwner",
          "type": "address"
        }
      ],
      "name": "OwnershipTransferred",
      "type": "event"
    },
    {
      "constant": false,
      "inputs": [
        {
          "name": "_owner",
          "type": "address"
        },
        {
          "name": "_deadline",
          "type": "uint256"
        },
        {
          "name": "_number",
          "type": "uint256"
        }
      ],
      "name": "startGame",
      "outputs": [],
      "payable": false,
      "stateMutability": "nonpayable",
      "type": "function"
    },
    {
      "constant": true,
      "inputs": [],
      "name": "getStart",
      "outputs": [
        {
          "name": "",
          "type": "uint256"
        }
      ],
      "payable": false,
      "stateMutability": "view",
      "type": "function"
    },
    {
      "constant": false,
      "inputs": [
        {
          "name": "_guess",
          "type": "uint256"
        }
      ],
      "name": "guess",
      "outputs": [
        {
          "name": "",
          "type": "string"
        }
      ],
      "payable": true,
      "stateMutability": "payable",
      "type": "function"
    },
    {
      "constant": false,
      "inputs": [],
      "name": "finalize",
      "outputs": [],
      "payable": false,
      "stateMutability": "nonpayable",
      "type": "function"
    },
    {
      "constant": false,
      "inputs": [],
      "name": "kill",
      "outputs": [],
      "payable": false,
      "stateMutability": "nonpayable",
      "type": "function"
    }
  ],
  "bytecode": "0x6080604052600154600255600060035566038d7ea4c680006004554260055561004e61003a3031600a6401000000006107e66100b882021704565b60096401000000006107fd6100cf82021704565b60095534801561005d57600080fd5b506040516060806109598339810160409081528151602083015191909201516000805433600160a060020a03199182161790915560078054909116600160a060020a03909316929092179091556006919091556003556100f8565b600081838115156100c557fe5b0490505b92915050565b60008215156100e0575060006100c9565b508181028183828115156100f057fe5b04146100c957fe5b610852806101076000396000f3006080604052600436106100cf5763ffffffff7c010000000000000000000000000000000000000000000000000000000060003504166329dcb0cf81146100d457806341c0e1b5146100fb5780634bb278f314610112578063715018a61461012757806378e979251461013c5780638b8526cc146101515780638da5cb5b146101785780639189fec1146101a9578063c5292c6714610229578063d57dd7101461023e578063dfbf53ae14610253578063e3ac5d2614610268578063f2fde38b1461027d578063f71d96cb1461029e575b600080fd5b3480156100e057600080fd5b506100e96102b6565b60408051918252519081900360200190f35b34801561010757600080fd5b506101106102bc565b005b34801561011e57600080fd5b506101106102df565b34801561013357600080fd5b50610110610333565b34801561014857600080fd5b506100e961039f565b34801561015d57600080fd5b50610110600160a060020a03600435166024356044356103a5565b34801561018457600080fd5b5061018d61043f565b60408051600160a060020a039092168252519081900360200190f35b6101b460043561044e565b6040805160208082528351818301528351919283929083019185019080838360005b838110156101ee5781810151838201526020016101d6565b50505050905090810190601f16801561021b5780820380516001836020036101000a031916815260200191505b509250505060405180910390f35b34801561023557600080fd5b506100e9610709565b34801561024a57600080fd5b506100e961070f565b34801561025f57600080fd5b5061018d610715565b34801561027457600080fd5b506100e9610724565b34801561028957600080fd5b50610110600160a060020a036004351661072a565b3480156102aa57600080fd5b5061018d6004356107be565b60065481565b600754600160a060020a03163314156102dd57600754600160a060020a0316ff5b565b600054600160a060020a031633146102f657600080fd5b600754604051600160a060020a0390911690303180156108fc02916000818181858888f19350505050158015610330573d6000803e3d6000fd5b50565b600054600160a060020a0316331461034a57600080fd5b60008054604051600160a060020a03909116917ff8df31144d9c2f0f6b59d69b8b98abd5459d07f2742c4df920b25aae33c6482091a26000805473ffffffffffffffffffffffffffffffffffffffff19169055565b60055481565b600054600160a060020a031633146103bc57600080fd5b6007805473ffffffffffffffffffffffffffffffffffffffff1916600160a060020a038581169190911791829055426005819055600685905560038490556040805186815293909216602084015282820152517f0210c419a578041fbddfdfe49625e2e2c692ef817e19a7a42673614535571f67916060908290030190a1505050565b600754600160a060020a031681565b606060018210158015610465575064e8d4a5100082105b151561047057600080fd5b600754600160a060020a031633141561048857600080fd5b60065442111561049757600080fd5b60045434146104a557600080fd5b60018054808201825560008290527fb10e2d527612073b26eecdfd717e6a320cf44b4afac2b0732d9fcbe2b7fa0cf601805473ffffffffffffffffffffffffffffffffffffffff191633179055600254604080516020810183905281815283549181018290527ffedc335baa2e5c516a96cf5c47c9d093ea4018aeb5003a912e2c80593e2d3f6a939291819060608201908590801561056d57602002820191906000526020600020905b8154600160a060020a0316815260019091019060200180831161054f575b5050935050505060405180910390a160035482141561069357600954604051339180156108fc02916000818181858888f193505050501580156105b4573d6000803e3d6000fd5b50600754604051600160a060020a0390911690303180156108fc02916000818181858888f193505050501580156105ef573d6000803e3d6000fd5b506008805473ffffffffffffffffffffffffffffffffffffffff191633179081905560095460408051918252600160a060020a0392909216602082015281517f6ba5dc8a421029a0fe80d8fe4aa97be0b2c57e2792be0192cd4ec0a1cfbd1ecd929181900390910190a15060408051808201909152600b81527f596f7527766520776f6e210000000000000000000000000000000000000000006020820152610704565b60065442106106a4576106a46102df565b606060405190810160405280602781526020017f47616d652068617320656e6465642e205761697420666f7220746865206e657881526020017f7420726f756e640000000000000000000000000000000000000000000000000081525090505b919050565b60055490565b60025481565b600854600160a060020a031681565b60095481565b600054600160a060020a0316331461074157600080fd5b600160a060020a038116151561075657600080fd5b60008054604051600160a060020a03808516939216917f8be0079c531659141344cd1fd0a4f28419497f9722a3daafe3b4186f6b6457e091a36000805473ffffffffffffffffffffffffffffffffffffffff1916600160a060020a0392909216919091179055565b60018054829081106107cc57fe5b600091825260209091200154600160a060020a0316905081565b600081838115156107f357fe5b0490505b92915050565b600082151561080e575060006107f7565b5081810281838281151561081e57fe5b04146107f757fe00a165627a7a723058200c039c8f66292e8d134d020d62ca27d0887be86dd36734c3b6355979de96082b0029",
  "source": "pragma solidity ^0.4.23;\n\n/**\n * @title SafeMath\n * @dev Math operations with safety checks that throw on error\n */\nlibrary SafeMath {\n\n  /**\n  * @dev Multiplies two numbers, throws on overflow.\n  */\n  function mul(uint256 a, uint256 b) internal pure returns (uint256 c) {\n    if (a == 0) {\n      return 0;\n    }\n    c = a * b;\n    assert(c / a == b);\n    return c;\n  }\n\n  /**\n  * @dev Integer division of two numbers, truncating the quotient.\n  */\n  function div(uint256 a, uint256 b) internal pure returns (uint256) {\n    // assert(b > 0); // Solidity automatically throws when dividing by 0\n    // uint256 c = a / b;\n    // assert(a == b * c + a % b); // There is no case in which this doesn't hold\n    return a / b;\n  }\n\n  /**\n  * @dev Subtracts two numbers, throws on overflow (i.e. if subtrahend is greater than minuend).\n  */\n  function sub(uint256 a, uint256 b) internal pure returns (uint256) {\n    assert(b <= a);\n    return a - b;\n  }\n\n  /**\n  * @dev Adds two numbers, throws on overflow.\n  */\n  function add(uint256 a, uint256 b) internal pure returns (uint256 c) {\n    c = a + b;\n    assert(c >= a);\n    return c;\n  }\n}\n\n/**\n * @title Ownable\n * @dev The Ownable contract has an owner address, and provides basic authorization control\n * functions, this simplifies the implementation of \"user permissions\".\n */\ncontract Ownable {\n  address public owner;\n\n\n  event OwnershipRenounced(address indexed previousOwner);\n  event OwnershipTransferred(\n    address indexed previousOwner,\n    address indexed newOwner\n  );\n\n\n  /**\n   * @dev The Ownable constructor sets the original `owner` of the contract to the sender\n   * account.\n   */\n  constructor() public {\n    owner = msg.sender;\n  }\n\n  /**\n   * @dev Throws if called by any account other than the owner.\n   */\n  modifier onlyOwner() {\n    require(msg.sender == owner);\n    _;\n  }\n\n  /**\n   * @dev Allows the current owner to transfer control of the contract to a newOwner.\n   * @param newOwner The address to transfer ownership to.\n   */\n  function transferOwnership(address newOwner) public onlyOwner {\n    require(newOwner != address(0));\n    emit OwnershipTransferred(owner, newOwner);\n    owner = newOwner;\n  }\n\n  /**\n   * @dev Allows the current owner to relinquish control of the contract.\n   */\n  function renounceOwnership() public onlyOwner {\n    emit OwnershipRenounced(owner);\n    owner = address(0);\n  }\n}\n\n\n\ncontract Etherball is Ownable {\n    address[] public players;\n    uint public playing = players.length;\n    uint256 private number = 0;\n    uint private weiPrice = 0.001*10**18;\n    uint public startTime = now;\n    uint public deadline;\n    address public owner;\n    address public winner;\n    uint256 public prize = SafeMath.mul(SafeMath.div(address(this).balance, 10), 9);\n\n    event Game(uint256 _deadline, address _owner, uint256 _startTime);\n\n    event Players(address[] _players, uint playing);\n\n    event Prize(uint256 _prize, address _winner);\n\n    \n\n    constructor(uint256 _deadline, address _owner, uint256 _number) public {\n        owner = _owner;\n        deadline = _deadline;\n        number = _number;\n    }\n\n    function startGame(address _owner, uint256 _deadline, uint256 _number) onlyOwner public {\n        owner = _owner;\n        startTime = now;\n        deadline = _deadline;\n        number = _number;\n        emit Game(deadline, owner, startTime);\n    }\n\n\n    function getStart() view public returns(uint) {\n        return startTime;\n    }\n\n\n\n\n    function guess(uint256 _guess) payable returns (string) {\n\n       // Check if the number is in the range\n       require(_guess >= 1 && _guess < 1000000000000);\n\n       // Owner cannot guess the number\n       require(msg.sender != owner);\n\n       // Check if the lottery ended\n       require(now <= deadline);\n\n       // msg.value is how much ether was sent\n       require(msg.value == weiPrice);\n\n       players.push(msg.sender);\n\n       emit Players(players, playing);\n\n       if(_guess == number) {\n           // Give prize to winner\n           (msg.sender).transfer(prize);\n           // Give fee to the owner\n           (owner).transfer(address(this).balance);\n           winner = msg.sender;\n           emit Prize(prize, winner);\n           return \"You've won!\";\n       }\n       else {\n           if(now >= deadline) finalize(); return \"Game has ended. Wait for the next round\";\n           emit Prize(prize, winner);\n           return \"Wrong guess. Try again\";\n       }\n    }\n\n    function finalize() onlyOwner {\n       owner.transfer(address(this).balance);\n    }\n\n    function kill() public {\n        if(msg.sender == owner) selfdestruct(owner);\n    }\n\n    function () payable {\n      revert();\n    }\n\n}\n",
  "sourcePath": "/Users/hyungsukkang/projects/etherball-next/contracts/Etherball.sol",
  "compiler": {
    "name": "solc",
    "version": "0.4.24+commit.e67f0147.Emscripten.clang"
  },
  "schemaVersion": "2.0.0",
  "updatedAt": "2018-06-16T11:10:50.271Z"
}